{
  "contractName": "Faucet",
  "abi": [
    {
      "inputs": [
        {
          "internalType": "address",
          "name": "_Buxcoin",
          "type": "address"
        },
        {
          "internalType": "address",
          "name": "_BXCOwner",
          "type": "address"
        }
      ],
      "stateMutability": "nonpayable",
      "type": "constructor"
    },
    {
      "stateMutability": "payable",
      "type": "fallback",
      "payable": true
    },
    {
      "inputs": [],
      "name": "BXCOwner",
      "outputs": [
        {
          "internalType": "address",
          "name": "",
          "type": "address"
        }
      ],
      "stateMutability": "view",
      "type": "function",
      "constant": true
    },
    {
      "inputs": [],
      "name": "Buxcoin",
      "outputs": [
        {
          "internalType": "contract ERC20",
          "name": "",
          "type": "address"
        }
      ],
      "stateMutability": "view",
      "type": "function",
      "constant": true
    },
    {
      "inputs": [
        {
          "internalType": "uint256",
          "name": "withdraw_amount",
          "type": "uint256"
        }
      ],
      "name": "withdraw",
      "outputs": [],
      "stateMutability": "nonpayable",
      "type": "function"
    }
  ],
  "bytecode": "0x608060405234801561001057600080fd5b506040516105673803806105678339818101604052810190610032919061011d565b816000806101000a81548173ffffffffffffffffffffffffffffffffffffffff021916908373ffffffffffffffffffffffffffffffffffffffff16021790555080600160006101000a81548173ffffffffffffffffffffffffffffffffffffffff021916908373ffffffffffffffffffffffffffffffffffffffff160217905550505061015d565b600080fd5b600073ffffffffffffffffffffffffffffffffffffffff82169050919050565b60006100ea826100bf565b9050919050565b6100fa816100df565b811461010557600080fd5b50565b600081519050610117816100f1565b92915050565b60008060408385031215610134576101336100ba565b5b600061014285828601610108565b925050602061015385828601610108565b9150509250929050565b6103fb8061016c6000396000f3fe6080604052600436106100385760003560e01c806308efe67b1461003e5780632e1a7d4d146100695780637089199c1461009257610039565b5b600080fd5b34801561004a57600080fd5b506100536100bd565b604051610060919061021d565b60405180910390f35b34801561007557600080fd5b50610090600480360381019061008b9190610273565b6100e3565b005b34801561009e57600080fd5b506100a76101b8565b6040516100b491906102ff565b60405180910390f35b600160009054906101000a900473ffffffffffffffffffffffffffffffffffffffff1681565b6103e88111156100f257600080fd5b60008054906101000a900473ffffffffffffffffffffffffffffffffffffffff1673ffffffffffffffffffffffffffffffffffffffff166323b872dd600160009054906101000a900473ffffffffffffffffffffffffffffffffffffffff1633846040518463ffffffff1660e01b815260040161017193929190610329565b6020604051808303816000875af1158015610190573d6000803e3d6000fd5b505050506040513d601f19601f820116820180604052508101906101b49190610398565b5050565b60008054906101000a900473ffffffffffffffffffffffffffffffffffffffff1681565b600073ffffffffffffffffffffffffffffffffffffffff82169050919050565b6000610207826101dc565b9050919050565b610217816101fc565b82525050565b6000602082019050610232600083018461020e565b92915050565b600080fd5b6000819050919050565b6102508161023d565b811461025b57600080fd5b50565b60008135905061026d81610247565b92915050565b60006020828403121561028957610288610238565b5b60006102978482850161025e565b91505092915050565b6000819050919050565b60006102c56102c06102bb846101dc565b6102a0565b6101dc565b9050919050565b60006102d7826102aa565b9050919050565b60006102e9826102cc565b9050919050565b6102f9816102de565b82525050565b600060208201905061031460008301846102f0565b92915050565b6103238161023d565b82525050565b600060608201905061033e600083018661020e565b61034b602083018561020e565b610358604083018461031a565b949350505050565b60008115159050919050565b61037581610360565b811461038057600080fd5b50565b6000815190506103928161036c565b92915050565b6000602082840312156103ae576103ad610238565b5b60006103bc84828501610383565b9150509291505056fea2646970667358221220692a587e9c3858bfdbe80b924edd0aa69c916df50ed1a3c6ea3dccab50e1686664736f6c634300080d0033",
  "immutableReferences": {},
  "source": "pragma solidity ^0.8.13;\n\nimport '@openzeppelin/contracts/token/ERC20/ERC20.sol';\n\ncontract Faucet {\n\n    ERC20 public Buxcoin;\n    address public BXCOwner;\n\n    constructor(address _Buxcoin, address _BXCOwner) {\n        Buxcoin = ERC20(_Buxcoin);\n        BXCOwner = _BXCOwner;\n    }\n\n    function withdraw(uint withdraw_amount) public {\n        require(withdraw_amount <= 1000);\n\n        Buxcoin.transferFrom(BXCOwner, msg.sender, withdraw_amount);\n    }\n\n    fallback() external payable {\n        revert();\n    }\n}",
  "sourcePath": "/Users/ran/dev/personal/buxcoin/contracts/Faucet.sol",
  "compiler": {
    "name": "solc",
    "version": "0.8.13+commit.abaa5c0e.Emscripten.clang"
  },
  "schemaVersion": "3.4.7",
  "updatedAt": "2022-04-19T17:22:47.510Z",
  "networkType": "ethereum",
  "devdoc": {
    "kind": "dev",
    "methods": {},
    "version": 1
  },
  "userdoc": {
    "kind": "user",
    "methods": {},
    "version": 1
  }
}